{
  "contractName": "MyNFTmarketplace",
  "abi": [
    {
      "anonymous": false,
      "inputs": [
        {
          "indexed": false,
          "internalType": "address",
          "name": "_from",
          "type": "address"
        },
        {
          "indexed": false,
          "internalType": "address",
          "name": "_to",
          "type": "address"
        },
        {
          "indexed": false,
          "internalType": "bytes32",
          "name": "_id",
          "type": "bytes32"
        }
      ],
      "name": "Transfer",
      "type": "event"
    },
    {
      "inputs": [
        {
          "internalType": "string",
          "name": "_NFThash",
          "type": "string"
        },
        {
          "internalType": "string",
          "name": "_NFTurl",
          "type": "string"
        },
        {
          "internalType": "uint256",
          "name": "_no",
          "type": "uint256"
        }
      ],
      "name": "uploadNFT",
      "outputs": [],
      "stateMutability": "nonpayable",
      "type": "function"
    },
    {
      "inputs": [],
      "name": "nftcollection",
      "outputs": [
        {
          "internalType": "bytes32[]",
          "name": "",
          "type": "bytes32[]"
        }
      ],
      "stateMutability": "view",
      "type": "function",
      "constant": true
    },
    {
      "inputs": [
        {
          "internalType": "bytes32",
          "name": "_id",
          "type": "bytes32"
        }
      ],
      "name": "getNFT",
      "outputs": [
        {
          "components": [
            {
              "internalType": "string",
              "name": "NFThash",
              "type": "string"
            },
            {
              "internalType": "string",
              "name": "NFTurl",
              "type": "string"
            },
            {
              "internalType": "address",
              "name": "owner",
              "type": "address"
            }
          ],
          "internalType": "struct MyNFTmarketplace.NFTart",
          "name": "",
          "type": "tuple"
        }
      ],
      "stateMutability": "view",
      "type": "function",
      "constant": true
    },
    {
      "inputs": [
        {
          "internalType": "address",
          "name": "_to",
          "type": "address"
        },
        {
          "internalType": "bytes32",
          "name": "_id",
          "type": "bytes32"
        }
      ],
      "name": "transfer",
      "outputs": [],
      "stateMutability": "payable",
      "type": "function",
      "payable": true
    }
  ],
  "bytecode": "0x608060405234801561001057600080fd5b50610cad806100206000396000f3fe60806040526004361061003f5760003560e01c80631222358214610044578063738f0740146100815780637d32e7bd146100aa578063afa86424146100c6575b600080fd5b34801561005057600080fd5b5061006b60048036038101906100669190610695565b6100f1565b60405161007891906109a8565b60405180910390f35b34801561008d57600080fd5b506100a860048036038101906100a391906106c2565b610297565b005b6100c460048036038101906100bf9190610655565b61039d565b005b3480156100d257600080fd5b506100db610474565b6040516100e89190610966565b60405180910390f35b6100f96104cc565b60008083815260200190815260200160002060405180606001604052908160008201805461012690610b19565b80601f016020809104026020016040519081016040528092919081815260200182805461015290610b19565b801561019f5780601f106101745761010080835404028352916020019161019f565b820191906000526020600020905b81548152906001019060200180831161018257829003601f168201915b505050505081526020016001820180546101b890610b19565b80601f01602080910402602001604051908101604052809291908181526020018280546101e490610b19565b80156102315780601f1061020657610100808354040283529160200191610231565b820191906000526020600020905b81548152906001019060200180831161021457829003601f168201915b505050505081526020016002820160009054906101000a900473ffffffffffffffffffffffffffffffffffffffff1673ffffffffffffffffffffffffffffffffffffffff1673ffffffffffffffffffffffffffffffffffffffff16815250509050919050565b60008383836040516020016102ae939291906108fa565b6040516020818303038152906040528051906020012090508360008083815260200190815260200160002060000190805190602001906102ef929190610503565b50826000808381526020019081526020016000206001019080519060200190610319929190610503565b503360008083815260200190815260200160002060020160006101000a81548173ffffffffffffffffffffffffffffffffffffffff021916908373ffffffffffffffffffffffffffffffffffffffff160217905550600181908060018154018082558091505060019003906000526020600020016000909190919091505550505050565b60013410156103e1576040517f08c379a00000000000000000000000000000000000000000000000000000000081526004016103d890610988565b60405180910390fd5b8160008083815260200190815260200160002060020160006101000a81548173ffffffffffffffffffffffffffffffffffffffff021916908373ffffffffffffffffffffffffffffffffffffffff1602179055507f8d61cf26ce654b1352bb60df9f3d4056b9e85a63977debf8fc9cd727aeda767e3383836040516104689392919061092f565b60405180910390a15050565b606060018054806020026020016040519081016040528092919081815260200182805480156104c257602002820191906000526020600020905b8154815260200190600101908083116104ae575b5050505050905090565b60405180606001604052806060815260200160608152602001600073ffffffffffffffffffffffffffffffffffffffff1681525090565b82805461050f90610b19565b90600052602060002090601f0160209004810192826105315760008555610578565b82601f1061054a57805160ff1916838001178555610578565b82800160010185558215610578579182015b8281111561057757825182559160200191906001019061055c565b5b5090506105859190610589565b5090565b5b808211156105a257600081600090555060010161058a565b5090565b60006105b96105b4846109ef565b6109ca565b9050828152602081018484840111156105d5576105d4610be9565b5b6105e0848285610ad7565b509392505050565b6000813590506105f781610c32565b92915050565b60008135905061060c81610c49565b92915050565b600082601f83011261062757610626610be4565b5b81356106378482602086016105a6565b91505092915050565b60008135905061064f81610c60565b92915050565b6000806040838503121561066c5761066b610bf3565b5b600061067a858286016105e8565b925050602061068b858286016105fd565b9150509250929050565b6000602082840312156106ab576106aa610bf3565b5b60006106b9848285016105fd565b91505092915050565b6000806000606084860312156106db576106da610bf3565b5b600084013567ffffffffffffffff8111156106f9576106f8610bee565b5b61070586828701610612565b935050602084013567ffffffffffffffff81111561072657610725610bee565b5b61073286828701610612565b925050604061074386828701610640565b9150509250925092565b600061075983836107e1565b60208301905092915050565b61076e81610a91565b82525050565b61077d81610a91565b82525050565b600061078e82610a30565b6107988185610a53565b93506107a383610a20565b8060005b838110156107d45781516107bb888261074d565b97506107c683610a46565b9250506001810190506107a7565b5085935050505092915050565b6107ea81610aa3565b82525050565b6107f981610aa3565b82525050565b600061080a82610a3b565b6108148185610a64565b9350610824818560208601610ae6565b61082d81610bf8565b840191505092915050565b600061084382610a3b565b61084d8185610a86565b935061085d818560208601610ae6565b80840191505092915050565b6000610876601483610a75565b915061088182610c09565b602082019050919050565b600060608301600083015184820360008601526108a982826107ff565b915050602083015184820360208601526108c382826107ff565b91505060408301516108d86040860182610765565b508091505092915050565b6108f46108ef82610acd565b610b7c565b82525050565b60006109068286610838565b91506109128285610838565b915061091e82846108e3565b602082019150819050949350505050565b60006060820190506109446000830186610774565b6109516020830185610774565b61095e60408301846107f0565b949350505050565b600060208201905081810360008301526109808184610783565b905092915050565b600060208201905081810360008301526109a181610869565b9050919050565b600060208201905081810360008301526109c2818461088c565b905092915050565b60006109d46109e5565b90506109e08282610b4b565b919050565b6000604051905090565b600067ffffffffffffffff821115610a0a57610a09610bb5565b5b610a1382610bf8565b9050602081019050919050565b6000819050602082019050919050565b600081519050919050565b600081519050919050565b6000602082019050919050565b600082825260208201905092915050565b600082825260208201905092915050565b600082825260208201905092915050565b600081905092915050565b6000610a9c82610aad565b9050919050565b6000819050919050565b600073ffffffffffffffffffffffffffffffffffffffff82169050919050565b6000819050919050565b82818337600083830152505050565b60005b83811015610b04578082015181840152602081019050610ae9565b83811115610b13576000848401525b50505050565b60006002820490506001821680610b3157607f821691505b60208210811415610b4557610b44610b86565b5b50919050565b610b5482610bf8565b810181811067ffffffffffffffff82111715610b7357610b72610bb5565b5b80604052505050565b6000819050919050565b7f4e487b7100000000000000000000000000000000000000000000000000000000600052602260045260246000fd5b7f4e487b7100000000000000000000000000000000000000000000000000000000600052604160045260246000fd5b600080fd5b600080fd5b600080fd5b600080fd5b6000601f19601f8301169050919050565b7f416d6f756e74206973206e6f7420656e6f756768000000000000000000000000600082015250565b610c3b81610a91565b8114610c4657600080fd5b50565b610c5281610aa3565b8114610c5d57600080fd5b50565b610c6981610acd565b8114610c7457600080fd5b5056fea2646970667358221220cdba703b26b4f723f2c008592608fa1e525f616be87f91e57b8408a4f93bab0364736f6c63430008070033",
  "immutableReferences": {},
  "source": "// SPDX-License-Identifier: GPL-3.0\n\npragma solidity >=0.7.0 <0.9.0;\n\ncontract MyNFTmarketplace{\n\n    // structure for the NFTart\n    struct NFTart{\n        string NFThash;\n        string  NFTurl;\n        address owner;\n    }\n    // events to get data for off chain uses\n    event Transfer(address _from, address _to, bytes32 _id);\n\n    mapping(bytes32 => NFTart) NFT;\n\n    bytes32 [] NFTcollections;\n\n    // function to update uploaded NFT data in smart contract\n    function uploadNFT(string memory _NFThash, string memory _NFTurl,uint _no)external{\n        // hashing the data and generting a unique id for the NFtart\n        bytes32 _id = keccak256(abi.encodePacked(_NFThash,_NFTurl,_no));\n\n        // updating NFTart data in respective containers\n        NFT[_id].NFThash = _NFThash;\n        NFT[_id].NFTurl = _NFTurl;\n        NFT[_id].owner = msg.sender;\n        NFTcollections.push(_id);\n    }\n\n    function nftcollection()public view returns(bytes32 [] memory){\n        return NFTcollections;\n    }\n\n    // function to return details of a NFtart when it's is has been send\n    function getNFT(bytes32  _id) public view returns(NFTart memory){\n        return NFT[_id];\n    }\n\n    // function to transfer NFTart(only Owner has can perform this opertion)\n    function transfer(address _to, bytes32 _id) external payable{\n        // require(NFT[_id].owner == msg.sender,\"Only owner has right to transfer\");\n        require(msg.value >= 0.000000000000000001 ether,\"Amount is not enough\");\n        NFT[_id].owner = _to;\n        emit Transfer(msg.sender, _to, _id);\n        }\n\n\n    \n\n\n}",
  "sourcePath": "/home/aduttya/Documents/nftmarketplace/contracts/Mynft.sol",
  "compiler": {
    "name": "solc",
    "version": "0.8.7+commit.e28d00a7.Emscripten.clang"
  },
  "schemaVersion": "3.4.3",
  "updatedAt": "2021-10-20T04:36:31.226Z",
  "networkType": "ethereum",
  "devdoc": {
    "kind": "dev",
    "methods": {},
    "version": 1
  },
  "userdoc": {
    "kind": "user",
    "methods": {},
    "version": 1
  }
}